{"abi":[{"type":"constructor","inputs":[{"name":"_entranceFee","type":"uint256","internalType":"uint256"},{"name":"_feeAddress","type":"address","internalType":"address"},{"name":"_raffleDuration","type":"uint256","internalType":"uint256"}],"stateMutability":"nonpayable"},{"type":"function","name":"COMMON_RARITY","inputs":[],"outputs":[{"name":"","type":"uint256","internalType":"uint256"}],"stateMutability":"view"},{"type":"function","name":"LEGENDARY_RARITY","inputs":[],"outputs":[{"name":"","type":"uint256","internalType":"uint256"}],"stateMutability":"view"},{"type":"function","name":"RARE_RARITY","inputs":[],"outputs":[{"name":"","type":"uint256","internalType":"uint256"}],"stateMutability":"view"},{"type":"function","name":"RARITY","inputs":[],"outputs":[{"name":"","type":"uint256","internalType":"uint256"}],"stateMutability":"view"},{"type":"function","name":"approve","inputs":[{"name":"to","type":"address","internalType":"address"},{"name":"tokenId","type":"uint256","internalType":"uint256"}],"outputs":[],"stateMutability":"nonpayable"},{"type":"function","name":"balanceOf","inputs":[{"name":"owner","type":"address","internalType":"address"}],"outputs":[{"name":"","type":"uint256","internalType":"uint256"}],"stateMutability":"view"},{"type":"function","name":"baseURI","inputs":[],"outputs":[{"name":"","type":"string","internalType":"string"}],"stateMutability":"view"},{"type":"function","name":"changeFeeAddress","inputs":[{"name":"newFeeAddress","type":"address","internalType":"address"}],"outputs":[],"stateMutability":"nonpayable"},{"type":"function","name":"enterRaffle","inputs":[{"name":"newPlayers","type":"address[]","internalType":"address[]"}],"outputs":[],"stateMutability":"payable"},{"type":"function","name":"entranceFee","inputs":[],"outputs":[{"name":"","type":"uint256","internalType":"uint256"}],"stateMutability":"view"},{"type":"function","name":"feeAddress","inputs":[],"outputs":[{"name":"","type":"address","internalType":"address"}],"stateMutability":"view"},{"type":"function","name":"getActivePlayerIndex","inputs":[{"name":"player","type":"address","internalType":"address"}],"outputs":[{"name":"","type":"uint256","internalType":"uint256"}],"stateMutability":"view"},{"type":"function","name":"getApproved","inputs":[{"name":"tokenId","type":"uint256","internalType":"uint256"}],"outputs":[{"name":"","type":"address","internalType":"address"}],"stateMutability":"view"},{"type":"function","name":"isApprovedForAll","inputs":[{"name":"owner","type":"address","internalType":"address"},{"name":"operator","type":"address","internalType":"address"}],"outputs":[{"name":"","type":"bool","internalType":"bool"}],"stateMutability":"view"},{"type":"function","name":"name","inputs":[],"outputs":[{"name":"","type":"string","internalType":"string"}],"stateMutability":"view"},{"type":"function","name":"owner","inputs":[],"outputs":[{"name":"","type":"address","internalType":"address"}],"stateMutability":"view"},{"type":"function","name":"ownerOf","inputs":[{"name":"tokenId","type":"uint256","internalType":"uint256"}],"outputs":[{"name":"","type":"address","internalType":"address"}],"stateMutability":"view"},{"type":"function","name":"players","inputs":[{"name":"","type":"uint256","internalType":"uint256"}],"outputs":[{"name":"","type":"address","internalType":"address"}],"stateMutability":"view"},{"type":"function","name":"previousWinner","inputs":[],"outputs":[{"name":"","type":"address","internalType":"address"}],"stateMutability":"view"},{"type":"function","name":"raffleDuration","inputs":[],"outputs":[{"name":"","type":"uint256","internalType":"uint256"}],"stateMutability":"view"},{"type":"function","name":"raffleStartTime","inputs":[],"outputs":[{"name":"","type":"uint256","internalType":"uint256"}],"stateMutability":"view"},{"type":"function","name":"rarityToName","inputs":[{"name":"","type":"uint256","internalType":"uint256"}],"outputs":[{"name":"","type":"string","internalType":"string"}],"stateMutability":"view"},{"type":"function","name":"rarityToUri","inputs":[{"name":"","type":"uint256","internalType":"uint256"}],"outputs":[{"name":"","type":"string","internalType":"string"}],"stateMutability":"view"},{"type":"function","name":"refund","inputs":[{"name":"playerIndex","type":"uint256","internalType":"uint256"}],"outputs":[],"stateMutability":"nonpayable"},{"type":"function","name":"renounceOwnership","inputs":[],"outputs":[],"stateMutability":"nonpayable"},{"type":"function","name":"safeTransferFrom","inputs":[{"name":"from","type":"address","internalType":"address"},{"name":"to","type":"address","internalType":"address"},{"name":"tokenId","type":"uint256","internalType":"uint256"}],"outputs":[],"stateMutability":"nonpayable"},{"type":"function","name":"safeTransferFrom","inputs":[{"name":"from","type":"address","internalType":"address"},{"name":"to","type":"address","internalType":"address"},{"name":"tokenId","type":"uint256","internalType":"uint256"},{"name":"_data","type":"bytes","internalType":"bytes"}],"outputs":[],"stateMutability":"nonpayable"},{"type":"function","name":"selectWinner","inputs":[],"outputs":[],"stateMutability":"nonpayable"},{"type":"function","name":"setApprovalForAll","inputs":[{"name":"operator","type":"address","internalType":"address"},{"name":"approved","type":"bool","internalType":"bool"}],"outputs":[],"stateMutability":"nonpayable"},{"type":"function","name":"supportsInterface","inputs":[{"name":"interfaceId","type":"bytes4","internalType":"bytes4"}],"outputs":[{"name":"","type":"bool","internalType":"bool"}],"stateMutability":"view"},{"type":"function","name":"symbol","inputs":[],"outputs":[{"name":"","type":"string","internalType":"string"}],"stateMutability":"view"},{"type":"function","name":"tokenByIndex","inputs":[{"name":"index","type":"uint256","internalType":"uint256"}],"outputs":[{"name":"","type":"uint256","internalType":"uint256"}],"stateMutability":"view"},{"type":"function","name":"tokenIdToRarity","inputs":[{"name":"","type":"uint256","internalType":"uint256"}],"outputs":[{"name":"","type":"uint256","internalType":"uint256"}],"stateMutability":"view"},{"type":"function","name":"tokenOfOwnerByIndex","inputs":[{"name":"owner","type":"address","internalType":"address"},{"name":"index","type":"uint256","internalType":"uint256"}],"outputs":[{"name":"","type":"uint256","internalType":"uint256"}],"stateMutability":"view"},{"type":"function","name":"tokenURI","inputs":[{"name":"tokenId","type":"uint256","internalType":"uint256"}],"outputs":[{"name":"","type":"string","internalType":"string"}],"stateMutability":"view"},{"type":"function","name":"totalFees","inputs":[],"outputs":[{"name":"","type":"uint64","internalType":"uint64"}],"stateMutability":"view"},{"type":"function","name":"totalSupply","inputs":[],"outputs":[{"name":"","type":"uint256","internalType":"uint256"}],"stateMutability":"view"},{"type":"function","name":"transferFrom","inputs":[{"name":"from","type":"address","internalType":"address"},{"name":"to","type":"address","internalType":"address"},{"name":"tokenId","type":"uint256","internalType":"uint256"}],"outputs":[],"stateMutability":"nonpayable"},{"type":"function","name":"transferOwnership","inputs":[{"name":"newOwner","type":"address","internalType":"address"}],"outputs":[],"stateMutability":"nonpayable"},{"type":"function","name":"withdrawFees","inputs":[],"outputs":[],"stateMutability":"nonpayable"},{"type":"event","name":"Approval","inputs":[{"name":"owner","type":"address","indexed":true,"internalType":"address"},{"name":"approved","type":"address","indexed":true,"internalType":"address"},{"name":"tokenId","type":"uint256","indexed":true,"internalType":"uint256"}],"anonymous":false},{"type":"event","name":"ApprovalForAll","inputs":[{"name":"owner","type":"address","indexed":true,"internalType":"address"},{"name":"operator","type":"address","indexed":true,"internalType":"address"},{"name":"approved","type":"bool","indexed":false,"internalType":"bool"}],"anonymous":false},{"type":"event","name":"FeeAddressChanged","inputs":[{"name":"newFeeAddress","type":"address","indexed":false,"internalType":"address"}],"anonymous":false},{"type":"event","name":"OwnershipTransferred","inputs":[{"name":"previousOwner","type":"address","indexed":true,"internalType":"address"},{"name":"newOwner","type":"address","indexed":true,"internalType":"address"}],"anonymous":false},{"type":"event","name":"RaffleEnter","inputs":[{"name":"newPlayers","type":"address[]","indexed":false,"internalType":"address[]"}],"anonymous":false},{"type":"event","name":"RaffleRefunded","inputs":[{"name":"player","type":"address","indexed":false,"internalType":"address"}],"anonymous":false},{"type":"event","name":"Transfer","inputs":[{"name":"from","type":"address","indexed":true,"internalType":"address"},{"name":"to","type":"address","indexed":true,"internalType":"address"},{"name":"tokenId","type":"uint256","indexed":true,"internalType":"uint256"}],"anonymous":false}],"bytecode":{"object":"0x600f8054600160a01b600160e01b0319169055610100604052603560a081815290620037db60c03980516200003d91601391602090910190620004a5565b50604051806060016040528060358152602001620038106035913980516200006e91601491602090910190620004a5565b50604051806060016040528060358152602001620037a66035913980516200009f91601591602090910190620004a5565b50348015620000ad57600080fd5b50604051620038453803806200384583398181016040526060811015620000d357600080fd5b50805160208083015160409384015184518086018652600c81526b507570707920526166666c6560a01b8185015285518087019096526002865261282960f11b93860193909352929390929190620001326301ffc9a760e01b6200041c565b815162000147906006906020850190620004a5565b5080516200015d906007906020840190620004a5565b50620001706380ac58cd60e01b6200041c565b62000182635b5e139f60e01b6200041c565b6200019463780e9d6360e01b6200041c565b5060009050620001a3620004a1565b600a80546001600160a01b0319166001600160a01b038316908117909155604051919250906000907f8be0079c531659141344cd1fd0a4f28419497f9722a3daafe3b4186f6b6457e0908290a3506080839052600f80546001600160a01b0319166001600160a01b038416179055600c81905542600d55604660005260116020526013805462000268917f5b7f6fa27cbdd877c784e5cd6f1e7b2e2ecfccc0fd6ec81e33b8acc96c2c12c991600261010060018316150260001901909116046200053a565b506019600052601160205260148054620002b7917fbd257726630d6fa81014c2a632bd8ba73882fff9da9629e2e56f50f9e7161fcf91600260001961010060018416150201909116046200053a565b50600560005260116020526015805462000306917fc550213cee30afd5e67ccba7be3d381bbc169034ae08eb3ec9168caca9fe55e791600260001961010060018416150201909116046200053a565b5060408051808201909152600681526531b7b6b6b7b760d11b602080830191825260466000526012905290516200035f917f35f893b72ce0d9e4576e154d39495c618a5a26dd034e3e870883107ad973755f91620004a5565b506040805180820190915260048152637261726560e01b60208083019182526019600052601290529051620003b6917f799a11cccb7c7d688c679c3a3d7f03e6af337f5bda872b434ee1b298e35f586b91620004a5565b506040805180820190915260098152686c6567656e6461727960b81b6020808301918252600560005260129052905162000412917f45429b9195d4ec5c0cf6c69e9c21a4ca0ea773b702c2de5735f85d2631f2674691620004a5565b50505050620005db565b6001600160e01b031980821614156200047c576040805162461bcd60e51b815260206004820152601c60248201527f4552433136353a20696e76616c696420696e7465726661636520696400000000604482015290519081900360640190fd5b6001600160e01b0319166000908152602081905260409020805460ff19166001179055565b3390565b828054600181600116156101000203166002900490600052602060002090601f016020900481019282620004dd576000855562000528565b82601f10620004f857805160ff191683800117855562000528565b8280016001018555821562000528579182015b82811115620005285782518255916020019190600101906200050b565b5062000536929150620005c4565b5090565b828054600181600116156101000203166002900490600052602060002090601f01602090048101928262000572576000855562000528565b82601f1062000585578054855562000528565b828001600101855582156200052857600052602060002091601f016020900482015b8281111562000528578254825591600101919060010190620005a7565b5b80821115620005365760008155600101620005c5565b6080516131a16200060560003980610d125280610fa852806113b85280611bc852506131a16000f3fe60806040526004361061023b5760003560e01c8063649677e11161012e578063b88d4fde116100ab578063db2cea751161006f578063db2cea7514610880578063e1a0f7e7146108b3578063e985e9c514610956578063f2fde38b14610991578063f71d96cb146109c45761023b565b8063b88d4fde14610744578063bd71a52114610817578063bd7c40c71461082c578063c87b56dd14610841578063db2c0b911461086b5761023b565b80638da5cb5b116100f25780638da5cb5b146106a057806395d89b41146106b5578063970c76e1146106ca578063a22cb465146106f4578063b2f8846b1461072f5761023b565b8063649677e1146106045780636be88980146106195780636c0360eb1461064357806370a0823114610658578063715018a61461068b5761023b565b806333a99e04116101bc578063476343ee11610180578063476343ee1461055c5780634a038beb146105715780634f6ccce71461059b5780635c6059ee146105c55780636352211e146105da5761023b565b806333a99e04146104c55780633be539ee146104da57806341275358146104ef57806342842e0e1461050457806342d4817c146105475761023b565b806318160ddd1161020357806318160ddd146103c557806323b872dd146103ec578063278ecde11461042f578063285e1406146104595780632f745c591461048c5761023b565b806301ffc9a71461024057806306fdde0314610288578063081812fc14610312578063095ea7b31461035857806313114a9d14610393575b600080fd5b34801561024c57600080fd5b506102746004803603602081101561026357600080fd5b50356001600160e01b0319166109ee565b604080519115158252519081900360200190f35b34801561029457600080fd5b5061029d610a11565b6040805160208082528351818301528351919283929083019185019080838360005b838110156102d75781810151838201526020016102bf565b50505050905090810190601f1680156103045780820380516001836020036101000a031916815260200191505b509250505060405180910390f35b34801561031e57600080fd5b5061033c6004803603602081101561033557600080fd5b5035610aa7565b604080516001600160a01b039092168252519081900360200190f35b34801561036457600080fd5b506103916004803603604081101561037b57600080fd5b506001600160a01b038135169060200135610b09565b005b34801561039f57600080fd5b506103a8610be4565b6040805167ffffffffffffffff9092168252519081900360200190f35b3480156103d157600080fd5b506103da610bfb565b60408051918252519081900360200190f35b3480156103f857600080fd5b506103916004803603606081101561040f57600080fd5b506001600160a01b03813581169160208101359091169060400135610c0c565b34801561043b57600080fd5b506103916004803603602081101561045257600080fd5b5035610c63565b34801561046557600080fd5b506103916004803603602081101561047c57600080fd5b50356001600160a01b0316610da3565b34801561049857600080fd5b506103da600480360360408110156104af57600080fd5b506001600160a01b038135169060200135610e6b565b3480156104d157600080fd5b50610391610e96565b3480156104e657600080fd5b506103da61118a565b3480156104fb57600080fd5b5061033c611190565b34801561051057600080fd5b506103916004803603606081101561052757600080fd5b506001600160a01b0381358116916020810135909116906040013561119f565b34801561055357600080fd5b506103da6111ba565b34801561056857600080fd5b506103916111c0565b34801561057d57600080fd5b5061029d6004803603602081101561059457600080fd5b50356112ce565b3480156105a757600080fd5b506103da600480360360208110156105be57600080fd5b5035611369565b3480156105d157600080fd5b5061033c61137f565b3480156105e657600080fd5b5061033c600480360360208110156105fd57600080fd5b503561138e565b34801561061057600080fd5b506103da6113b6565b34801561062557600080fd5b506103da6004803603602081101561063c57600080fd5b50356113da565b34801561064f57600080fd5b5061029d6113ec565b34801561066457600080fd5b506103da6004803603602081101561067b57600080fd5b50356001600160a01b031661144d565b34801561069757600080fd5b506103916114b5565b3480156106ac57600080fd5b5061033c611573565b3480156106c157600080fd5b5061029d611582565b3480156106d657600080fd5b5061029d600480360360208110156106ed57600080fd5b50356115e3565b34801561070057600080fd5b506103916004803603604081101561071757600080fd5b506001600160a01b038135169060200135151561164b565b34801561073b57600080fd5b506103da611750565b34801561075057600080fd5b506103916004803603608081101561076757600080fd5b6001600160a01b038235811692602081013590911691604082013591908101906080810160608201356401000000008111156107a257600080fd5b8201836020820111156107b457600080fd5b803590602001918460018302840111640100000000831117156107d657600080fd5b91908080601f016020809104026020016040519081016040528093929190818152602001838380828437600092019190915250929550611756945050505050565b34801561082357600080fd5b506103da6117b4565b34801561083857600080fd5b506103da6117b9565b34801561084d57600080fd5b5061029d6004803603602081101561086457600080fd5b50356117be565b34801561087757600080fd5b506103da611b67565b34801561088c57600080fd5b506103da600480360360208110156108a357600080fd5b50356001600160a01b0316611b6c565b610391600480360360208110156108c957600080fd5b8101906020810181356401000000008111156108e457600080fd5b8201836020820111156108f657600080fd5b8035906020019184602083028401116401000000008311171561091857600080fd5b919080806020026020016040519081016040528093929190818152602001838360200280828437600092019190915250929550611bc4945050505050565b34801561096257600080fd5b506102746004803603604081101561097957600080fd5b506001600160a01b0381358116916020013516611dca565b34801561099d57600080fd5b50610391600480360360208110156109b457600080fd5b50356001600160a01b0316611df8565b3480156109d057600080fd5b5061033c600480360360208110156109e757600080fd5b5035611f0d565b6001600160e01b0319811660009081526020819052604090205460ff165b919050565b60068054604080516020601f6002600019610100600188161502019095169490940493840181900481028201810190925282815260609390929091830182828015610a9d5780601f10610a7257610100808354040283529160200191610a9d565b820191906000526020600020905b815481529060010190602001808311610a8057829003601f168201915b5050505050905090565b6000610ab282611f37565b610aed5760405162461bcd60e51b815260040180806020018281038252602c815260200180612fe3602c913960400191505060405180910390fd5b506000908152600460205260409020546001600160a01b031690565b6000610b148261138e565b9050806001600160a01b0316836001600160a01b03161415610b675760405162461bcd60e51b815260040180806020018281038252602181526020018061306e6021913960400191505060405180910390fd5b806001600160a01b0316610b79611f44565b6001600160a01b03161480610b9a5750610b9a81610b95611f44565b611dca565b610bd55760405162461bcd60e51b8152600401808060200182810382526038815260200180612ec66038913960400191505060405180910390fd5b610bdf8383611f48565b505050565b600f54600160a01b900467ffffffffffffffff1681565b6000610c076002611fb6565b905090565b610c1d610c17611f44565b82611fc1565b610c585760405162461bcd60e51b81526004018080602001828103825260318152602001806130bf6031913960400191505060405180910390fd5b610bdf838383612065565b6000600b8281548110610c7257fe5b6000918252602090912001546001600160a01b03169050338114610cc75760405162461bcd60e51b8152600401808060200182810382526027815260200180612d646027913960400191505060405180910390fd5b6001600160a01b038116610d0c5760405162461bcd60e51b815260040180806020018281038252603681526020018061300f6036913960400191505060405180910390fd5b610d36337f00000000000000000000000000000000000000000000000000000000000000006121b1565b6000600b8381548110610d4557fe5b60009182526020918290200180546001600160a01b0319166001600160a01b03938416179055604080519284168352517fcada6d5a24d75e568453894e32683a8a5e6421131f8df496749af47c49a932879281900390910190a15050565b610dab611f44565b6001600160a01b0316610dbc611573565b6001600160a01b031614610e17576040805162461bcd60e51b815260206004820181905260248201527f4f776e61626c653a2063616c6c6572206973206e6f7420746865206f776e6572604482015290519081900360640190fd5b600f80546001600160a01b0383166001600160a01b0319909116811790915560408051918252517fd1e93c69f2847f79bfa4d71704aaa84a581729b4b1706d922ee42ba1848a45c99181900360200190a150565b6001600160a01b0382166000908152600160205260408120610e8d9083612296565b90505b92915050565b600c54600d5401421015610ef1576040805162461bcd60e51b815260206004820152601c60248201527f5075707079526166666c653a20526166666c65206e6f74206f76657200000000604482015290519081900360640190fd5b600b5460041115610f335760405162461bcd60e51b81526004018080602001828103825260248152602001806131216024913960400191505060405180910390fd5b600b54604080513360601b6020808301919091524260348301524460548084019190915283518084039091018152607490920190925280519101206000919081610f7957fe5b0690506000600b8281548110610f8b57fe5b6000918252602082200154600b546001600160a01b0390911692507f000000000000000000000000000000000000000000000000000000000000000002906064605083020490506000606460148402600f805467ffffffffffffffff600160a01b8083048216959094049485011690920267ffffffffffffffff60a01b199092169190911790559050600061101e610bfb565b905060006064334460405160200180836001600160a01b031660601b8152601401828152602001925050506040516020818303038152906040528051906020012060001c8161106957fe5b066016819055905060468111611090576000828152601060205260409020604690556110c2565b605f81116110af576000828152601060205260409020601990556110c2565b6000828152601060205260409020600590555b6110ce600b6000612ce3565b42600d55600e80546001600160a01b0319166001600160a01b0388169081179091556040516000919086908381818185875af1925050503d8060008114611131576040519150601f19603f3d011682016040523d82523d6000602084013e611136565b606091505b50509050806111765760405162461bcd60e51b815260040180806020018281038252603081526020018061308f6030913960400191505060405180910390fd5b61118087846122a2565b5050505050505050565b600d5481565b600f546001600160a01b031681565b610bdf83838360405180602001604052806000815250611756565b60165481565b600f54600160a01b900467ffffffffffffffff1647146112115760405162461bcd60e51b8152600401808060200182810382526030815260200180612f516030913960400191505060405180910390fd5b600f805467ffffffffffffffff60a01b19811690915560405167ffffffffffffffff600160a01b830416916000916001600160a01b039091169083908381818185875af1925050503d8060008114611285576040519150601f19603f3d011682016040523d82523d6000602084013e61128a565b606091505b50509050806112ca5760405162461bcd60e51b8152600401808060200182810382526024815260200180612d406024913960400191505060405180910390fd5b5050565b60116020908152600091825260409182902080548351601f6002600019610100600186161502019093169290920491820184900484028101840190945280845290918301828280156113615780601f1061133657610100808354040283529160200191611361565b820191906000526020600020905b81548152906001019060200180831161134457829003601f168201915b505050505081565b6000806113776002846122bc565b509392505050565b600e546001600160a01b031681565b6000610e9082604051806060016040528060298152602001612f2860299139600291906122d8565b7f000000000000000000000000000000000000000000000000000000000000000081565b60106020526000908152604090205481565b60098054604080516020601f6002600019610100600188161502019095169490940493840181900481028201810190925282815260609390929091830182828015610a9d5780601f10610a7257610100808354040283529160200191610a9d565b60006001600160a01b0382166114945760405162461bcd60e51b815260040180806020018281038252602a815260200180612efe602a913960400191505060405180910390fd5b6001600160a01b0382166000908152600160205260409020610e9090611fb6565b6114bd611f44565b6001600160a01b03166114ce611573565b6001600160a01b031614611529576040805162461bcd60e51b815260206004820181905260248201527f4f776e61626c653a2063616c6c6572206973206e6f7420746865206f776e6572604482015290519081900360640190fd5b600a546040516000916001600160a01b0316907f8be0079c531659141344cd1fd0a4f28419497f9722a3daafe3b4186f6b6457e0908390a3600a80546001600160a01b0319169055565b600a546001600160a01b031690565b60078054604080516020601f6002600019610100600188161502019095169490940493840181900481028201810190925282815260609390929091830182828015610a9d5780601f10610a7257610100808354040283529160200191610a9d565b60126020908152600091825260409182902080548351601f6002600019610100600186161502019093169290920491820184900484028101840190945280845290918301828280156113615780601f1061133657610100808354040283529160200191611361565b611653611f44565b6001600160a01b0316826001600160a01b031614156116b9576040805162461bcd60e51b815260206004820152601960248201527f4552433732313a20617070726f766520746f2063616c6c657200000000000000604482015290519081900360640190fd5b80600560006116c6611f44565b6001600160a01b03908116825260208083019390935260409182016000908120918716808252919093529120805460ff19169215159290921790915561170a611f44565b6001600160a01b03167f17307eab39ab6107e8899845ad3d59bd9653f200f220920489ca2b5937696c318360405180821515815260200191505060405180910390a35050565b600c5481565b611767611761611f44565b83611fc1565b6117a25760405162461bcd60e51b81526004018080602001828103825260318152602001806130bf6031913960400191505060405180910390fd5b6117ae848484846122ef565b50505050565b604681565b600581565b60606117c982611f37565b6118045760405162461bcd60e51b815260040180806020018281038252602c815260200180612e10602c913960400191505060405180910390fd5b6000828152601060209081526040808320548084526011835281842080548351601f600260001961010060018616150201909316929092049182018690048602810186019094528084529194939091908301828280156118a55780601f1061187a576101008083540402835291602001916118a5565b820191906000526020600020905b81548152906001019060200180831161188857829003601f168201915b50505060008581526012602090815260408083208054825160026001831615610100026000190190921691909104601f8101859004850282018501909352828152969750929594509192508301828280156119415780601f1061191657610100808354040283529160200191611941565b820191906000526020600020905b81548152906001019060200180831161192457829003601f168201915b50505050509050611950612341565b611aae61195b610a11565b83856040516020018080683d913730b6b2911d1160b91b81525060090184805190602001908083835b602083106119a35780518252601f199092019160209182019101611984565b6001836020036101000a038019825116818451168082178552505050505050905001806131456027913960270160316130f0823960310183805190602001908083835b60208310611a055780518252601f1990920191602091820191016119e6565b51815160209384036101000a60001901801990921691161790526c3eae96101134b6b0b3b2911d1160991b919093019081528451600d90910192850191508083835b60208310611a665780518252601f199092019160209182019101611a47565b6001836020036101000a0380198251168184511680821785525050505050509050018061227d60f01b8152506002019350505050604051602081830303815290604052612378565b6040516020018083805190602001908083835b60208310611ae05780518252601f199092019160209182019101611ac1565b51815160209384036101000a600019018019909216911617905285519190930192850191508083835b60208310611b285780518252601f199092019160209182019101611b09565b6001836020036101000a038019825116818451168082178552505050505050905001925050506040516020818303038152906040529350505050919050565b601981565b6000805b600b54811015611bbb57826001600160a01b0316600b8281548110611b9157fe5b6000918252602090912001546001600160a01b03161415611bb3579050610a0c565b600101611b70565b50600092915050565b80517f0000000000000000000000000000000000000000000000000000000000000000023414611c255760405162461bcd60e51b815260040180806020018281038252602d815260200180612de3602d913960400191505060405180910390fd5b60005b8151811015611c8457600b828281518110611c3f57fe5b60209081029190910181015182546001808201855560009485529290932090920180546001600160a01b0319166001600160a01b039093169290921790915501611c28565b5060005b600b5460001901811015611d5157600181015b600b54811015611d4857600b8181548110611cb257fe5b600091825260209091200154600b80546001600160a01b039092169184908110611cd857fe5b6000918252602090912001546001600160a01b03161415611d40576040805162461bcd60e51b815260206004820152601d60248201527f5075707079526166666c653a204475706c696361746520706c61796572000000604482015290519081900360640190fd5b600101611c9b565b50600101611c88565b507fb1c4333d548c772fcf6cf94ff4113aa3d3efcdbedd89953b15a30752b94e3582816040518080602001828103825283818151815260200191508051906020019060200280838360005b83811015611db4578181015183820152602001611d9c565b505050509050019250505060405180910390a150565b6001600160a01b03918216600090815260056020908152604080832093909416825291909152205460ff1690565b611e00611f44565b6001600160a01b0316611e11611573565b6001600160a01b031614611e6c576040805162461bcd60e51b815260206004820181905260248201527f4f776e61626c653a2063616c6c6572206973206e6f7420746865206f776e6572604482015290519081900360640190fd5b6001600160a01b038116611eb15760405162461bcd60e51b8152600401808060200182810382526026815260200180612dbd6026913960400191505060405180910390fd5b600a546040516001600160a01b038084169216907f8be0079c531659141344cd1fd0a4f28419497f9722a3daafe3b4186f6b6457e090600090a3600a80546001600160a01b0319166001600160a01b0392909216919091179055565b600b8181548110611f1d57600080fd5b6000918252602090912001546001600160a01b0316905081565b6000610e906002836124c4565b3390565b600081815260046020526040902080546001600160a01b0319166001600160a01b0384169081179091558190611f7d8261138e565b6001600160a01b03167f8c5be1e5ebec7d5bd14f71427d1e84f3dd0314c0f7b2291e5b200ac8c7c3b92560405160405180910390a45050565b6000610e90826124d0565b6000611fcc82611f37565b6120075760405162461bcd60e51b815260040180806020018281038252602c815260200180612e9a602c913960400191505060405180910390fd5b60006120128361138e565b9050806001600160a01b0316846001600160a01b0316148061204d5750836001600160a01b031661204284610aa7565b6001600160a01b0316145b8061205d575061205d8185611dca565b949350505050565b826001600160a01b03166120788261138e565b6001600160a01b0316146120bd5760405162461bcd60e51b81526004018080602001828103825260298152602001806130456029913960400191505060405180910390fd5b6001600160a01b0382166121025760405162461bcd60e51b8152600401808060200182810382526024815260200180612e3c6024913960400191505060405180910390fd5b61210d838383610bdf565b612118600082611f48565b6001600160a01b038316600090815260016020526040902061213a90826124d4565b506001600160a01b038216600090815260016020526040902061215d90826124e0565b5061216a600282846124ec565b5080826001600160a01b0316846001600160a01b03167fddf252ad1be2c89b69c2b068fc378daa952ba7f163c4a11628f55a4df523b3ef60405160405180910390a4505050565b80471015612206576040805162461bcd60e51b815260206004820152601d60248201527f416464726573733a20696e73756666696369656e742062616c616e6365000000604482015290519081900360640190fd5b6040516000906001600160a01b0384169083908381818185875af1925050503d8060008114612251576040519150601f19603f3d011682016040523d82523d6000602084013e612256565b606091505b5050905080610bdf5760405162461bcd60e51b815260040180806020018281038252603a815260200180612e60603a913960400191505060405180910390fd5b6000610e8d8383612502565b6112ca828260405180602001604052806000815250612566565b60008080806122cb86866125b8565b9097909650945050505050565b60006122e5848484612633565b90505b9392505050565b6122fa848484612065565b612306848484846126fd565b6117ae5760405162461bcd60e51b8152600401808060200182810382526032815260200180612d8b6032913960400191505060405180910390fd5b60408051808201909152601d81527f646174613a6170706c69636174696f6e2f6a736f6e3b6261736536342c000000602082015290565b60608151600014156123995750604080516020810190915260008152610a0c565b6000604051806060016040528060408152602001612f81604091399050600060038451600201816123c657fe5b04600402905060008160200167ffffffffffffffff811180156123e857600080fd5b506040519080825280601f01601f191660200182016040528015612413576020820181803683370190505b509050818152600183018586518101602084015b8183101561247f576003830192508251603f8160121c168501518253600182019150603f81600c1c168501518253600182019150603f8160061c168501518253600182019150603f8116850151825350600101612427565b60038951066001811461249957600281146124aa576124b6565b613d3d60f01b6001198301526124b6565b603d60f81b6000198301525b509398975050505050505050565b6000610e8d8383612865565b5490565b6000610e8d838361287d565b6000610e8d8383612943565b60006122e584846001600160a01b03851661298d565b815460009082106125445760405162461bcd60e51b8152600401808060200182810382526022815260200180612d1e6022913960400191505060405180910390fd5b82600001828154811061255357fe5b9060005260206000200154905092915050565b6125708383612a24565b61257d60008484846126fd565b610bdf5760405162461bcd60e51b8152600401808060200182810382526032815260200180612d8b6032913960400191505060405180910390fd5b8154600090819083106125fc5760405162461bcd60e51b8152600401808060200182810382526022815260200180612fc16022913960400191505060405180910390fd5b600084600001848154811061260d57fe5b906000526020600020906002020190508060000154816001015492509250509250929050565b600082815260018401602052604081205482816126ce5760405162461bcd60e51b81526004018080602001828103825283818151815260200191508051906020019080838360005b8381101561269357818101518382015260200161267b565b50505050905090810190601f1680156126c05780820380516001836020036101000a031916815260200191505b509250505060405180910390fd5b508460000160018203815481106126e157fe5b9060005260206000209060020201600101549150509392505050565b6000612711846001600160a01b0316612b52565b61271d5750600161205d565b600061282b630a85bd0160e11b612732611f44565b88878760405160240180856001600160a01b03168152602001846001600160a01b0316815260200183815260200180602001828103825283818151815260200191508051906020019080838360005b83811015612799578181015183820152602001612781565b50505050905090810190601f1680156127c65780820380516001836020036101000a031916815260200191505b5095505050505050604051602081830303815290604052906001600160e01b0319166020820180516001600160e01b038381831617835250505050604051806060016040528060328152602001612d8b603291396001600160a01b0388169190612b58565b9050600081806020019051602081101561284457600080fd5b50516001600160e01b031916630a85bd0160e11b1492505050949350505050565b60009081526001919091016020526040902054151590565b6000818152600183016020526040812054801561293957835460001980830191908101906000908790839081106128b057fe5b90600052602060002001549050808760000184815481106128cd57fe5b6000918252602080832090910192909255828152600189810190925260409020908401905586548790806128fd57fe5b60019003818190600052602060002001600090559055866001016000878152602001908152602001600020600090556001945050505050610e90565b6000915050610e90565b600061294f8383612865565b61298557508154600181810184556000848152602080822090930184905584548482528286019093526040902091909155610e90565b506000610e90565b6000828152600184016020526040812054806129f25750506040805180820182528381526020808201848152865460018181018955600089815284812095516002909302909501918255915190820155865486845281880190925292909120556122e8565b82856000016001830381548110612a0557fe5b90600052602060002090600202016001018190555060009150506122e8565b6001600160a01b038216612a7f576040805162461bcd60e51b815260206004820181905260248201527f4552433732313a206d696e7420746f20746865207a65726f2061646472657373604482015290519081900360640190fd5b612a8881611f37565b15612ada576040805162461bcd60e51b815260206004820152601c60248201527f4552433732313a20746f6b656e20616c7265616479206d696e74656400000000604482015290519081900360640190fd5b612ae660008383610bdf565b6001600160a01b0382166000908152600160205260409020612b0890826124e0565b50612b15600282846124ec565b5060405181906001600160a01b038416906000907fddf252ad1be2c89b69c2b068fc378daa952ba7f163c4a11628f55a4df523b3ef908290a45050565b3b151590565b60606122e5848460008585612b6c85612b52565b612bbd576040805162461bcd60e51b815260206004820152601d60248201527f416464726573733a2063616c6c20746f206e6f6e2d636f6e7472616374000000604482015290519081900360640190fd5b600080866001600160a01b031685876040518082805190602001908083835b60208310612bfb5780518252601f199092019160209182019101612bdc565b6001836020036101000a03801982511681845116808217855250505050505090500191505060006040518083038185875af1925050503d8060008114612c5d576040519150601f19603f3d011682016040523d82523d6000602084013e612c62565b606091505b5091509150612c72828286612c7d565b979650505050505050565b60608315612c8c5750816122e8565b825115612c9c5782518084602001fd5b60405162461bcd60e51b815260206004820181815284516024840152845185939192839260440191908501908083836000831561269357818101518382015260200161267b565b5080546000825590600052602060002090810190612d019190612d04565b50565b5b80821115612d195760008155600101612d05565b509056fe456e756d657261626c655365743a20696e646578206f7574206f6620626f756e64735075707079526166666c653a204661696c656420746f20776974686472617720666565735075707079526166666c653a204f6e6c792074686520706c617965722063616e20726566756e644552433732313a207472616e7366657220746f206e6f6e20455243373231526563656976657220696d706c656d656e7465724f776e61626c653a206e6577206f776e657220697320746865207a65726f20616464726573735075707079526166666c653a204d7573742073656e6420656e6f75676820746f20656e74657220726166666c655075707079526166666c653a2055524920717565727920666f72206e6f6e6578697374656e7420746f6b656e4552433732313a207472616e7366657220746f20746865207a65726f2061646472657373416464726573733a20756e61626c6520746f2073656e642076616c75652c20726563697069656e74206d617920686176652072657665727465644552433732313a206f70657261746f7220717565727920666f72206e6f6e6578697374656e7420746f6b656e4552433732313a20617070726f76652063616c6c6572206973206e6f74206f776e6572206e6f7220617070726f76656420666f7220616c6c4552433732313a2062616c616e636520717565727920666f7220746865207a65726f20616464726573734552433732313a206f776e657220717565727920666f72206e6f6e6578697374656e7420746f6b656e5075707079526166666c653a205468657265206172652063757272656e746c7920706c617965727320616374697665214142434445464748494a4b4c4d4e4f505152535455565758595a6162636465666768696a6b6c6d6e6f707172737475767778797a303132333435363738392b2f456e756d657261626c654d61703a20696e646578206f7574206f6620626f756e64734552433732313a20617070726f76656420717565727920666f72206e6f6e6578697374656e7420746f6b656e5075707079526166666c653a20506c6179657220616c726561647920726566756e6465642c206f72206973206e6f74206163746976654552433732313a207472616e73666572206f6620746f6b656e2074686174206973206e6f74206f776e4552433732313a20617070726f76616c20746f2063757272656e74206f776e65725075707079526166666c653a204661696c656420746f2073656e64207072697a6520706f6f6c20746f2077696e6e65724552433732313a207472616e736665722063616c6c6572206973206e6f74206f776e6572206e6f7220617070726f7665642261747472696275746573223a205b7b2274726169745f74797065223a2022726172697479222c202276616c7565223a205075707079526166666c653a204e656564206174206c65617374203420706c6179657273222c20226465736372697074696f6e223a22416e2061646f7261626c6520707570707921222c20a2646970667358221220296e65c80f64382e29092b948fac3c15c76cda06f8330384747c2aab3cd0cf5e64736f6c63430007060033697066733a2f2f516d597836477359414b6e4e7a5a3941364e76454b56396e66315661447a4a727144523233593859536b65624c55697066733a2f2f516d5373595278334c7044416231475a516d377a5a314175485a6a6662506b44364a3773397234317875316d6638697066733a2f2f516d55506a41444647454b6d666f686454614e635768703756476b323668356a5844413776335674546e544c6357","linkReferences":{}},"methodIdentifiers":{"COMMON_RARITY()":"bd71a521","LEGENDARY_RARITY()":"bd7c40c7","RARE_RARITY()":"db2c0b91","RARITY()":"42d4817c","approve(address,uint256)":"095ea7b3","balanceOf(address)":"70a08231","baseURI()":"6c0360eb","changeFeeAddress(address)":"285e1406","enterRaffle(address[])":"e1a0f7e7","entranceFee()":"649677e1","feeAddress()":"41275358","getActivePlayerIndex(address)":"db2cea75","getApproved(uint256)":"081812fc","isApprovedForAll(address,address)":"e985e9c5","name()":"06fdde03","owner()":"8da5cb5b","ownerOf(uint256)":"6352211e","players(uint256)":"f71d96cb","previousWinner()":"5c6059ee","raffleDuration()":"b2f8846b","raffleStartTime()":"3be539ee","rarityToName(uint256)":"970c76e1","rarityToUri(uint256)":"4a038beb","refund(uint256)":"278ecde1","renounceOwnership()":"715018a6","safeTransferFrom(address,address,uint256)":"42842e0e","safeTransferFrom(address,address,uint256,bytes)":"b88d4fde","selectWinner()":"33a99e04","setApprovalForAll(address,bool)":"a22cb465","supportsInterface(bytes4)":"01ffc9a7","symbol()":"95d89b41","tokenByIndex(uint256)":"4f6ccce7","tokenIdToRarity(uint256)":"6be88980","tokenOfOwnerByIndex(address,uint256)":"2f745c59","tokenURI(uint256)":"c87b56dd","totalFees()":"13114a9d","totalSupply()":"18160ddd","transferFrom(address,address,uint256)":"23b872dd","transferOwnership(address)":"f2fde38b","withdrawFees()":"476343ee"},"id":38}